{
  "contractName": "TokenFarm",
  "abi": [
    {
      "inputs": [
        {
          "internalType": "contract DappToken",
          "name": "_dappToken",
          "type": "address"
        },
        {
          "internalType": "contract DaiToken",
          "name": "_daiToken",
          "type": "address"
        }
      ],
      "payable": false,
      "stateMutability": "nonpayable",
      "type": "constructor"
    },
    {
      "constant": true,
      "inputs": [],
      "name": "daiToken",
      "outputs": [
        {
          "internalType": "contract DaiToken",
          "name": "",
          "type": "address"
        }
      ],
      "payable": false,
      "stateMutability": "view",
      "type": "function"
    },
    {
      "constant": true,
      "inputs": [],
      "name": "dappToken",
      "outputs": [
        {
          "internalType": "contract DappToken",
          "name": "",
          "type": "address"
        }
      ],
      "payable": false,
      "stateMutability": "view",
      "type": "function"
    },
    {
      "constant": true,
      "inputs": [
        {
          "internalType": "address",
          "name": "",
          "type": "address"
        }
      ],
      "name": "hasStaked",
      "outputs": [
        {
          "internalType": "bool",
          "name": "",
          "type": "bool"
        }
      ],
      "payable": false,
      "stateMutability": "view",
      "type": "function"
    },
    {
      "constant": true,
      "inputs": [
        {
          "internalType": "address",
          "name": "",
          "type": "address"
        }
      ],
      "name": "isStaking",
      "outputs": [
        {
          "internalType": "bool",
          "name": "",
          "type": "bool"
        }
      ],
      "payable": false,
      "stateMutability": "view",
      "type": "function"
    },
    {
      "constant": true,
      "inputs": [],
      "name": "name",
      "outputs": [
        {
          "internalType": "string",
          "name": "",
          "type": "string"
        }
      ],
      "payable": false,
      "stateMutability": "view",
      "type": "function"
    },
    {
      "constant": true,
      "inputs": [],
      "name": "owner",
      "outputs": [
        {
          "internalType": "address",
          "name": "",
          "type": "address"
        }
      ],
      "payable": false,
      "stateMutability": "view",
      "type": "function"
    },
    {
      "constant": true,
      "inputs": [
        {
          "internalType": "uint256",
          "name": "",
          "type": "uint256"
        }
      ],
      "name": "stakers",
      "outputs": [
        {
          "internalType": "address",
          "name": "",
          "type": "address"
        }
      ],
      "payable": false,
      "stateMutability": "view",
      "type": "function"
    },
    {
      "constant": true,
      "inputs": [
        {
          "internalType": "address",
          "name": "",
          "type": "address"
        }
      ],
      "name": "stakingBalance",
      "outputs": [
        {
          "internalType": "uint256",
          "name": "",
          "type": "uint256"
        }
      ],
      "payable": false,
      "stateMutability": "view",
      "type": "function"
    },
    {
      "constant": false,
      "inputs": [],
      "name": "toggleCircuitBreaker",
      "outputs": [],
      "payable": false,
      "stateMutability": "nonpayable",
      "type": "function"
    },
    {
      "constant": false,
      "inputs": [
        {
          "internalType": "uint256",
          "name": "_amount",
          "type": "uint256"
        }
      ],
      "name": "stakeTokens",
      "outputs": [],
      "payable": false,
      "stateMutability": "nonpayable",
      "type": "function"
    },
    {
      "constant": false,
      "inputs": [],
      "name": "unstakeTokens",
      "outputs": [],
      "payable": false,
      "stateMutability": "nonpayable",
      "type": "function"
    },
    {
      "constant": false,
      "inputs": [],
      "name": "issueTokens",
      "outputs": [],
      "payable": false,
      "stateMutability": "nonpayable",
      "type": "function"
    },
    {
      "constant": true,
      "inputs": [],
      "name": "getLatestPrice",
      "outputs": [
        {
          "internalType": "uint80",
          "name": "roundID",
          "type": "uint80"
        },
        {
          "internalType": "int256",
          "name": "price",
          "type": "int256"
        },
        {
          "internalType": "uint256",
          "name": "startedAt",
          "type": "uint256"
        },
        {
          "internalType": "uint256",
          "name": "timeStamp",
          "type": "uint256"
        },
        {
          "internalType": "uint80",
          "name": "answeredInRound",
          "type": "uint80"
        }
      ],
      "payable": false,
      "stateMutability": "view",
      "type": "function"
    }
  ],
  "bytecode": "0x60806040526040518060400160405280600f81526020017f4461707020546f6b656e204661726d00000000000000000000000000000000008152506001908051906020019061004f9291906101d5565b506001600960006101000a81548160ff02191690831515021790555034801561007757600080fd5b5060405162001294380380620012948339818101604052604081101561009c57600080fd5b81019080805190602001909291908051906020019092919050505081600360006101000a81548173ffffffffffffffffffffffffffffffffffffffff021916908373ffffffffffffffffffffffffffffffffffffffff16021790555080600460006101000a81548173ffffffffffffffffffffffffffffffffffffffff021916908373ffffffffffffffffffffffffffffffffffffffff16021790555033600260006101000a81548173ffffffffffffffffffffffffffffffffffffffff021916908373ffffffffffffffffffffffffffffffffffffffff160217905550739326bfa02add2366b30bacb125260af6410313316000806101000a81548173ffffffffffffffffffffffffffffffffffffffff021916908373ffffffffffffffffffffffffffffffffffffffff160217905550505061027a565b828054600181600116156101000203166002900490600052602060002090601f016020900481019282601f1061021657805160ff1916838001178555610244565b82800160010185558215610244579182015b82811115610243578251825591602001919060010190610228565b5b5090506102519190610255565b5090565b61027791905b8082111561027357600081600090555060010161025b565b5090565b90565b61100a806200028a6000396000f3fe608060405234801561001057600080fd5b50600436106100cf5760003560e01c80638da5cb5b1161008c578063be22f54611610066578063be22f5461461034b578063c93c8f3414610395578063d5eb63cc146103f1578063fd5e6dd1146103fb576100cf565b80638da5cb5b1461028d5780638e15f473146102d7578063a5ce413b14610341576100cf565b806306fdde03146100d457806345bc78ab146101575780635eb186f8146101af57806360ab5852146101f95780636f49712b146102035780637547c7a31461025f575b600080fd5b6100dc610469565b6040518080602001828103825283818151815260200191508051906020019080838360005b8381101561011c578082015181840152602081019050610101565b50505050905090810190601f1680156101495780820380516001836020036101000a031916815260200191505b509250505060405180910390f35b6101996004803603602081101561016d57600080fd5b81019080803573ffffffffffffffffffffffffffffffffffffffff169060200190929190505050610507565b6040518082815260200191505060405180910390f35b6101b761051f565b604051808273ffffffffffffffffffffffffffffffffffffffff1673ffffffffffffffffffffffffffffffffffffffff16815260200191505060405180910390f35b610201610545565b005b6102456004803603602081101561021957600080fd5b81019080803573ffffffffffffffffffffffffffffffffffffffff16906020019092919050505061079c565b604051808215151515815260200191505060405180910390f35b61028b6004803603602081101561027557600080fd5b81019080803590602001909291905050506107bc565b005b610295610b5b565b604051808273ffffffffffffffffffffffffffffffffffffffff1673ffffffffffffffffffffffffffffffffffffffff16815260200191505060405180910390f35b6102df610b81565b604051808669ffffffffffffffffffff1669ffffffffffffffffffff1681526020018581526020018481526020018381526020018269ffffffffffffffffffff1669ffffffffffffffffffff1681526020019550505050505060405180910390f35b610349610c6e565b005b610353610ecd565b604051808273ffffffffffffffffffffffffffffffffffffffff1673ffffffffffffffffffffffffffffffffffffffff16815260200191505060405180910390f35b6103d7600480360360208110156103ab57600080fd5b81019080803573ffffffffffffffffffffffffffffffffffffffff169060200190929190505050610ef3565b604051808215151515815260200191505060405180910390f35b6103f9610f13565b005b6104276004803603602081101561041157600080fd5b8101908080359060200190929190505050610f99565b604051808273ffffffffffffffffffffffffffffffffffffffff1673ffffffffffffffffffffffffffffffffffffffff16815260200191505060405180910390f35b60018054600181600116156101000203166002900480601f0160208091040260200160405190810160405280929190818152602001828054600181600116156101000203166002900480156104ff5780601f106104d4576101008083540402835291602001916104ff565b820191906000526020600020905b8154815290600101906020018083116104e257829003601f168201915b505050505081565b60066020528060005260406000206000915090505481565b600360009054906101000a900473ffffffffffffffffffffffffffffffffffffffff1681565b600260009054906101000a900473ffffffffffffffffffffffffffffffffffffffff1673ffffffffffffffffffffffffffffffffffffffff163373ffffffffffffffffffffffffffffffffffffffff1614610608576040517f08c379a00000000000000000000000000000000000000000000000000000000081526004018080602001828103825260188152602001807f63616c6c6572206d75737420626520746865206f776e6572000000000000000081525060200191505060405180910390fd5b60008090505b6005805490508110156107995760006005828154811061062a57fe5b9060005260206000200160009054906101000a900473ffffffffffffffffffffffffffffffffffffffff1690506000600660008373ffffffffffffffffffffffffffffffffffffffff1673ffffffffffffffffffffffffffffffffffffffff168152602001908152602001600020549050600081111561078a57600360009054906101000a900473ffffffffffffffffffffffffffffffffffffffff1673ffffffffffffffffffffffffffffffffffffffff1663a9059cbb83836040518363ffffffff1660e01b8152600401808373ffffffffffffffffffffffffffffffffffffffff1673ffffffffffffffffffffffffffffffffffffffff16815260200182815260200192505050602060405180830381600087803b15801561074d57600080fd5b505af1158015610761573d6000803e3d6000fd5b505050506040513d602081101561077757600080fd5b8101908080519060200190929190505050505b5050808060010191505061060e565b50565b60086020528060005260406000206000915054906101000a900460ff1681565b60011515600960009054906101000a900460ff161515146107dc57600080fd5b60008111610852576040517f08c379a00000000000000000000000000000000000000000000000000000000081526004018080602001828103825260128152602001807f616d6f756e742063616e6e6f742062652030000000000000000000000000000081525060200191505060405180910390fd5b600460009054906101000a900473ffffffffffffffffffffffffffffffffffffffff1673ffffffffffffffffffffffffffffffffffffffff166323b872dd3330846040518463ffffffff1660e01b8152600401808473ffffffffffffffffffffffffffffffffffffffff1673ffffffffffffffffffffffffffffffffffffffff1681526020018373ffffffffffffffffffffffffffffffffffffffff1673ffffffffffffffffffffffffffffffffffffffff1681526020018281526020019350505050602060405180830381600087803b15801561092f57600080fd5b505af1158015610943573d6000803e3d6000fd5b505050506040513d602081101561095957600080fd5b81019080805190602001909291905050505080600660003373ffffffffffffffffffffffffffffffffffffffff1673ffffffffffffffffffffffffffffffffffffffff1681526020019081526020016000205401600660003373ffffffffffffffffffffffffffffffffffffffff1673ffffffffffffffffffffffffffffffffffffffff16815260200190815260200160002081905550600760003373ffffffffffffffffffffffffffffffffffffffff1673ffffffffffffffffffffffffffffffffffffffff16815260200190815260200160002060009054906101000a900460ff16610aa85760053390806001815401808255809150509060018203906000526020600020016000909192909190916101000a81548173ffffffffffffffffffffffffffffffffffffffff021916908373ffffffffffffffffffffffffffffffffffffffff160217905550505b6001600860003373ffffffffffffffffffffffffffffffffffffffff1673ffffffffffffffffffffffffffffffffffffffff16815260200190815260200160002060006101000a81548160ff0219169083151502179055506001600760003373ffffffffffffffffffffffffffffffffffffffff1673ffffffffffffffffffffffffffffffffffffffff16815260200190815260200160002060006101000a81548160ff02191690831515021790555050565b600260009054906101000a900473ffffffffffffffffffffffffffffffffffffffff1681565b60008060008060008060009054906101000a900473ffffffffffffffffffffffffffffffffffffffff1673ffffffffffffffffffffffffffffffffffffffff1663feaf968c6040518163ffffffff1660e01b815260040160a06040518083038186803b158015610bf057600080fd5b505afa158015610c04573d6000803e3d6000fd5b505050506040513d60a0811015610c1a57600080fd5b81019080805190602001909291908051906020019092919080519060200190929190805190602001909291908051906020019092919050505080955081965082975083985084995050505050509091929394565b60011515600960009054906101000a900460ff16151514610c8e57600080fd5b6000600660003373ffffffffffffffffffffffffffffffffffffffff1673ffffffffffffffffffffffffffffffffffffffff16815260200190815260200160002054905060008111610d48576040517f08c379a000000000000000000000000000000000000000000000000000000000815260040180806020018281038252601b8152602001807f7374616b696e672062616c616e63652063616e6e6f742062652030000000000081525060200191505060405180910390fd5b600460009054906101000a900473ffffffffffffffffffffffffffffffffffffffff1673ffffffffffffffffffffffffffffffffffffffff1663a9059cbb33836040518363ffffffff1660e01b8152600401808373ffffffffffffffffffffffffffffffffffffffff1673ffffffffffffffffffffffffffffffffffffffff16815260200182815260200192505050602060405180830381600087803b158015610df157600080fd5b505af1158015610e05573d6000803e3d6000fd5b505050506040513d6020811015610e1b57600080fd5b8101908080519060200190929190505050506000600660003373ffffffffffffffffffffffffffffffffffffffff1673ffffffffffffffffffffffffffffffffffffffff168152602001908152602001600020819055506000600860003373ffffffffffffffffffffffffffffffffffffffff1673ffffffffffffffffffffffffffffffffffffffff16815260200190815260200160002060006101000a81548160ff02191690831515021790555050565b600460009054906101000a900473ffffffffffffffffffffffffffffffffffffffff1681565b60076020528060005260406000206000915054906101000a900460ff1681565b3373ffffffffffffffffffffffffffffffffffffffff16600260009054906101000a900473ffffffffffffffffffffffffffffffffffffffff1673ffffffffffffffffffffffffffffffffffffffff1614610f6d57600080fd5b600960009054906101000a900460ff1615600960006101000a81548160ff021916908315150217905550565b60058181548110610fa657fe5b906000526020600020016000915054906101000a900473ffffffffffffffffffffffffffffffffffffffff168156fea265627a7a72315820038b4e623b50c2011bb85fbe92e1e960ba1c8d1d64d6b166efc553483a06083b64736f6c63430005100032",
  "source": "pragma solidity ^0.5.0;\n\n/// @title Token Farm\n/// @author Nick Pala\n/// @notice You can use this contract for stake and farm token\n/// @dev All function calls are currently implemented without side effects\n\nimport \"./DappToken.sol\";\nimport \"./DaiToken.sol\";\nimport \"@chainlink/contracts/src/v0.5/interfaces/AggregatorV3Interface.sol\";\n\ncontract TokenFarm {\n\n  /// @notice Set the basic infos\n  /// @dev public\n\n    ///@dev AggregatorV3Interface, allows us to use the simplified functions of getLatestPrice\n    AggregatorV3Interface private priceFeed;\n\n    string public name = \"Dapp Token Farm\";\n    address public owner;\n    DappToken public dappToken;\n    DaiToken public daiToken;\n\n    ///address checking for staking,\n\n    //address\n    address[] public stakers;\n    mapping(address => uint) public stakingBalance;\n    mapping(address => bool) public hasStaked;\n    mapping(address => bool) public isStaking;\n\n    /// circuitBreaker boolean\n    bool isActive = true;\n\n    constructor(DappToken _dappToken, DaiToken _daiToken) public {\n        dappToken = _dappToken;\n        daiToken = _daiToken;\n        owner = msg.sender;\n        //@dev  The oracle address is 0x9326BFA02ADD2366b30bacB125260Af641031331 and you can find all available feeds at https://docs.chain.link/docs/reference-contracts.\n        priceFeed = AggregatorV3Interface(\n          0x9326BFA02ADD2366b30bacB125260Af641031331\n        );\n    }\n\n    /// @notice circuit braker\n    /// @dev starting circuit braker, added to stakeTokens and unstakeTokens\n    function toggleCircuitBreaker() external {\n      require(owner == msg.sender);\n      //isActive is set !banged\n      isActive = !isActive;\n    }\n    /// @notice circuit braker\n    /// @dev modifier circuit braker\n    modifier contractIsActive() {\n      require(isActive == true);\n      _;\n    }\n\n    function stakeTokens(uint _amount) public contractIsActive() {\n        //@dev Require amount greater than 0\n        require(_amount > 0, \"amount cannot be 0\");\n\n        //@dev Trasnfer Mock Dai tokens to this contract for staking\n        daiToken.transferFrom(msg.sender, address(this), _amount);\n\n        //@dev Update staking balance\n        stakingBalance[msg.sender] = stakingBalance[msg.sender] + _amount;\n\n        //@dev Add user to stakers array *only* if they haven't staked already\n        if(!hasStaked[msg.sender]) {\n            stakers.push(msg.sender);\n        }\n\n        //@dev Update staking status\n        isStaking[msg.sender] = true;\n        hasStaked[msg.sender] = true;\n    }\n\n    // Unstaking Tokens (Withdraw)\n    function unstakeTokens() public contractIsActive() {\n        //@dev Fetch staking balance\n        uint balance = stakingBalance[msg.sender];\n\n        //@dev Require amount greater than 0\n        require(balance > 0, \"staking balance cannot be 0\");\n\n        ///@dev Transfer Mock Dai tokens to this contract for staking\n        daiToken.transfer(msg.sender, balance);\n\n        ///@dev Reset staking balance\n        stakingBalance[msg.sender] = 0;\n\n        ///@dev Update staking status\n        isStaking[msg.sender] = false;\n    }\n\n    // Issuing Tokens\n    function issueTokens() public {\n        ///@dev Only owner can call this function\n        require(msg.sender == owner, \"caller must be the owner\");\n\n        // Issue tokens to all stakers\n        /// @dev simple iteration to issue tokens\n        for (uint i=0; i<stakers.length; i++) {\n            address recipient = stakers[i];\n            uint balance = stakingBalance[recipient];\n\n            if(balance > 0) {\n                dappToken.transfer(recipient, balance);\n            }\n        }\n    }\n\n    /// @notice chainlink oracle ETH/USD\n    /// @dev starting circuit braker, added to stakeTokens and unstakeTokens\n    /// To get the latest price, just call the getLatestPrice function and it will return\n    function getLatestPrice() public view returns (\n        uint80 roundID,\n        int price,\n        uint startedAt,\n        uint timeStamp,\n        uint80 answeredInRound\n    ) {\n        (\n            roundID,\n            price,\n            startedAt,\n            timeStamp,\n            answeredInRound\n        ) = priceFeed.latestRoundData();\n    }\n\n}\n",
  "sourcePath": "/Users/macbook/Desktop/DAI_Farming/src/contracts/TokenFarm.sol",
  "compiler": {
    "name": "solc",
    "version": "0.5.16+commit.9c3226ce.Emscripten.clang"
  },
  "schemaVersion": "3.2.3",
  "updatedAt": "2020-12-01T06:00:15.528Z",
  "networkType": "ethereum",
  "devdoc": {
    "methods": {
      "getLatestPrice()": {
        "details": "starting circuit braker, added to stakeTokens and unstakeTokens To get the latest price, just call the getLatestPrice function and it will return"
      },
      "toggleCircuitBreaker()": {
        "details": "starting circuit braker, added to stakeTokens and unstakeTokens"
      }
    }
  },
  "userdoc": {
    "methods": {
      "getLatestPrice()": {
        "notice": "chainlink oracle ETH/USD"
      },
      "toggleCircuitBreaker()": {
        "notice": "circuit braker"
      }
    }
  }
}